:100000000C942D010C945E010C945E010C945E0125
:100010000C945E010C945E010C945E010C945E01E4
:100020000C945E010C945E010C945E010C945E01D4
:100030000C945E010C945E010C945E010C945E01C4
:100040000C945E010C945E010C945E010C945E01B4
:100050000C945E010C945E010C945E010C94CD0432
:100060000C945E010C9441050C9417050C945E01F0
:100070000C945E010C945E010C945E010C945E0184
:100080000C945E010C945E010C945E010C945E0174
:100090000C945E010C945E010C945E010C94770547
:1000A0000C945E010C945E010C945E010C945E0154
:1000B0000C945E010C945E010C945E010C945E0144
:1000C0000C945E010C945E010C945E010C945E0134
:1000D0000C945E010C945E010C945E010C945E0124
:1000E0000C945E010C9490010C9471020C94BC0170
:1000F0000C94D0030C9412020C94D4010C94AB0118
:100100000C94A7010C94C0010C94E6010C94950189
:100110000C9411020C94A9020C94F6020C94B601F2
:100120000C9413020C94BD030C944F020C94AD0379
:100130000C9440020C9433040C94C6010C94D70325
:100140000C94CE010C949B060C94AF010C94040407
:100150000C94CA010C9463020C94AE030C94DC0161
:100160000C94B3010C94D8010C94E201000022001D
:10017000250028002B002E00310034000201000071
:10018000050108010B010505050507050808080814
:10019000020202020A0A080804040404010101011F
:1001A000010101010303030303030303040707071A
:1001B0000C0C0C0C0C0C0C0C0202020206060606BF
:1001C000060606060B0B0B0B0B0B0B0B010210208C
:1001D000200808102040102040800201020108047D
:1001E0000201010204081020408080402010080411
:1001F000020180040201804020100804020108046A
:1002000002010102040810204080010204081020AD
:10021000408000000A0B02090C0D0E0807030401C0
:1002200000000000000000000000000000000000CE
:10023000000000000000000000000000000012119B
:10024000100000000000000000000000000000009E
:1002500000000000000000009B0611241FBECFEF2D
:10026000D1E2DEBFCDBF00E00CBF12E0A0E0B2E003
:10027000EAE0F2E100E00BBF02C007900D92AC395A
:10028000B107D9F724E0ACE9B2E001C01D92A83073
:10029000B207E1F711E0CDE2D1E000E006C021971E
:1002A0000109802FFE010E94FB08CC32D10780E0BB
:1002B0000807A9F70E94D4060C9403090C940000C7
:1002C000282F30E0F901EE5EFD4F9491F901E453DF
:1002D000FE4F44912A573E4FF9012491222309F4FD
:1002E00035C0992311F191509231F8F4E92FF0E0E3
:1002F0008827E258FE4F8F4F0C94FB08AF01B301E3
:100300009001A701AB019501B601BC01C001C60176
:10031000CA01CE01D401D8019501DC01E201E60158
:10032000809180008F7780938000E22FF0E0EE0FC5
:10033000FF1FE459FE4FA591B4918FB7F894EC914B
:10034000611148C040954E234C938FBF0895809112
:1003500080008F7DE8CF80918000877FE4CF84B5D7
:100360008F7784BDE2CF84B58F7DFBCF8091B000C5
:100370008F778093B000D9CF8091B0008F7DF9CF77
:10038000809190008F7780939000CFCF80919000E4
:100390008F7DF9CF80919000877FF5CF8091A0006D
:1003A0008F778093A000C1CF8091A0008F7DF9CF7F
:1003B0008091A000877FF5CF809120018F77809377
:1003C0002001B3CF809120018F7DF9CF8091200152
:1003D000877FF5CF4E2BB8CF3FB7F89480915B0362
:1003E00090915C03A0915D03B0915E0326B5A89B3C
:1003F00005C02F3F19F00196A11DB11D3FBFBA2FB7
:10040000A92F982F8827BC01CD01620F711D811D76
:10041000911D42E0660F771F881F991F4A95D1F7FB
:10042000089508950895AF92BF92CF92DF92EF9210
:10043000FF920F931F93CF93DF936C017B018B018E
:10044000040F151FEB015E01AE18BF08C017D107DE
:1004500059F06991D601ED91FC910190F081E02D68
:10046000C6011995892B79F7C501DF91CF911F91AD
:100470000F91FF90EF90DF90CF90BF90AF900895D5
:10048000FC01538D448D252F30E0842F90E0821B9A
:10049000930B541710F0CF96089501970895FC011F
:1004A000918D828D981761F0A28DAE0FBF2FB11D77
:1004B0005D968C91928D9F5F9F73928F90E00895CF
:1004C0008FEF9FEF0895FC01918D828D981731F089
:1004D000828DE80FF11D858D90E008958FEF9FEFDD
:1004E0000895FC01918D228D892F90E0805C9F4FB3
:1004F000821B91098F73992708958FE593E00E94DD
:10050000710221E0892B09F420E0822F0895FC017B
:10051000A48DA80FB92FB11DA35ABF4F2C91848D64
:1005200090E001968F739927848FA689B7892C93C1
:10053000A089B1898C91837080648C93938D848D14
:10054000981306C00288F389E02D80818F7D808317
:100550000895EF92FF920F931F93CF93DF93EC01D7
:1005600081E0888F9B8D8C8D98131AC0E889F9895A
:10057000808185FF15C09FB7F894EE89FF8960835D
:10058000E889F98980818370806480839FBF81E0DE
:1005900090E0DF91CF911F910F91FF90EF90089520
:1005A000F62E0B8D10E00F5F1F4F0F731127E02EFB
:1005B0008C8D8E110CC00FB607FCFACFE889F98933
:1005C000808185FFF5CFCE010E948702F1CFEB8DB0
:1005D000EC0FFD2FF11DE35AFF4FF0829FB7F89407
:1005E0000B8FEA89FB8980818062CFCFCF93DF9325
:1005F000EC01888D8823B9F0AA89BB89E889F9893B
:100600008C9185FD03C0808186FD0DC00FB607FC6F
:10061000F7CF8C9185FFF2CF808185FFEDCFCE01A2
:100620000E948702E9CFDF91CF91089580E090E0AA
:10063000892B29F00E947D0281110E94000080E038
:1006400090E0892B49F080E090E0892B29F00E940E
:10065000000081110E94000080E090E0892B49F0A9
:1006600080E090E0892B29F00E94000081110E9417
:10067000000080E090E0892B49F080E090E0892B39
:1006800029F00E94000081110C940000089520912F
:10069000DD02260F3327331F21323105ECF4209180
:1006A0002C03FC0190E080E0243069F082E00895A2
:1006B000A091DD022191AC0143545D4FA40FB52FF1
:1006C000B11D2C930196861798F38091DD02680F77
:1006D0006093DD0280E0089581E0089510922C037C
:1006E00081E080932B031092060361E084E10E9475
:1006F000600161E085E10E946001E9EBF0E080814A
:100700008E7F808380818D7F808388E48093B80092
:1007100085E48093BC000895CF93DF9391E090939C
:10072000BC028823B9F0C091B800D091BA00809182
:10073000BC008A7B8093BC0060E084E10E94600181
:1007400060E085E10E9460010E946E03D093BA00D0
:10075000C093B800DF91CF9108950895E09105030B
:1007600080910403E81730F4F0E0E456FD4F8081F7
:1007700090E008958FEF9FEF089590910503809189
:1007800004032FEF3FEF981748F4E92FF0E0E45609
:10079000FD4F208130E09F5F90930503C9010895CC
:1007A0008091040390910503891B990B0895CF92C2
:1007B000DF92EF92FF920F931F93CF93DF937C0111
:1007C000CB018A0120913203222389F0EB016B01D6
:1007D000C40ED51ECC15DD0569F06991D701ED91E8
:1007E000FC910190F081E02DC7011995F3CF642FA2
:1007F0000E944703C801DF91CF911F910F91FF9095
:10080000EF90DF90CF900895CF93DF931F92CDB7F5
:10081000DEB76983209132032223F9F0209155033A
:10082000203258F021E030E0FC013383228390E055
:1008300080E00F90DF91CF91089580913303E82FEE
:10084000F0E0EC5CFC4F998190838F5F80933303E1
:100850008093550381E090E0ECCF61E0CE010196FA
:100860000E944703F7CF90E080E00895FC010190DB
:100870000020E9F73197AF01481B590BBC018FE508
:1008800093E00C9413028F929F92AF92BF920F93BA
:100890001F93CF93DF93CDB7DEB7A1970FB6F89430
:1008A000DEBF0FBECDBF19A2423008F44AE08E0170
:1008B0000F5D1F4F842E912CB12CA12CA50194010A
:1008C0000E94D908E62FB901CA01EA30F4F4E05DCC
:1008D000D801EE938D01232B242B252B79F790E063
:1008E00080E0109719F0CD010E943604A1960FB652
:1008F000F894DEBF0FBECDBFDF91CF911F910F9156
:10090000BF90AF909F908F900895E95CE1CFCF9317
:10091000DF930E943604EC0184E292E00E943604E8
:100920008C0F9D1FDF91CF91089585ED8093BC00C2
:1009300080912E0390912F03A0913003B091310349
:100940000796A11DB11D23E0B695A79597958795AC
:100950002A95D1F72091BC0024FD03C010922C03EE
:10096000089540912E0350912F03609130037091B0
:100970003103452B462B472B69F30097A105B105A1
:1009800041F02AE22A95F1F700C00197A109B109C7
:10099000E1CF80912D030C948C031F920F920FB620
:1009A0000F9211242F933F938F939F93AF93BF93F5
:1009B0008091570390915803A0915903B0915A0325
:1009C0003091560323E0230F2D3758F50196A11DD2
:1009D000B11D209356038093570390935803A0931F
:1009E0005903B0935A0380915B0390915C03A091EB
:1009F0005D03B0915E030196A11DB11D80935B0361
:100A000090935C03A0935D03B0935E03BF91AF919D
:100A10009F918F913F912F910F900FBE0F901F903C
:100A2000189526E8230F0296A11DB11DD2CF1F9263
:100A30000F920FB60F9211240BB60F922F933F9384
:100A40004F935F936F937F938F939F93AF93BF93D6
:100A5000EF93FF938FE593E00E948702FF91EF9160
:100A6000BF91AF919F918F917F916F915F914F91C6
:100A70003F912F910F900BBE0F900FBE0F901F90C4
:100A800018951F920F920FB60F9211240BB60F926A
:100A90002F938F939F93EF93FF93E0916F03F091C8
:100AA00070038081E0917503F091760382FD1DC093
:100AB0009081809178038F5F8F73209179038217E3
:100AC00041F0E0917803F0E0E15AFC4F958F80937C
:100AD0007803FF91EF919F918F912F910F900BBE13
:100AE0000F900FBE0F901F9018958081F2CF1F922C
:100AF0000F920FB60F9211240BB60F922F933F93C4
:100B00004F935F936F937F938F939F93AF93BF9315
:100B1000EF93FF938091B900887F803609F44DC030
:100B200008F040C0883209F4A9C028F5803109F4E2
:100B30009DC0C8F4882309F4FBC0883009F496C02E
:100B4000FF91EF91BF91AF919F918F917F916F91A5
:100B50005F914F913F912F910F900BBE0F900FBE61
:100B60000F901F901895883109F488C0803241F7A2
:100B700080932A0314C0803409F49DC040F480336C
:100B8000B9F38833E9F680932A0385ECB0C0803549
:100B900009F485C0883509F496C0883489F60E9426
:100BA0009504CECF883909F48CC038F5883729F000
:100BB00050F4883611F0803719F683E080932C03C7
:100BC0001092FF0257C0883809F47BC0803919F0B1
:100BD000803809F0B5CF8091FF02803208F071C0F3
:100BE000E091FF0281E08E0F8093FF028091BB00B5
:100BF000F0E0E152FD4F80833DC0803B39F0E0F4EE
:100C0000803A09F479C0883A09F09ACF84E0809359
:100C10002C031092DE021092DD02E0910203F091AB
:100C2000030319958091DD0281110FC081E080934B
:100C3000DD021092BD0209C0803C09F4A6CF883CB9
:100C400009F4A3CF883B09F07BCFE091DE0281E07D
:100C50008E0F8093DE02F0E0E354FD4F808180939D
:100C6000BB009091DE028091DD0229C080910703D4
:100C70008093BB0085EC8093BC0062CF90912903E8
:100C800080912803981758F5E091290381E08E0F91
:100C900080932903F0E0E85FFC4F8081E9CFE09189
:100CA000290381E08E0F809329038091BB00F0E03F
:100CB000E85FFC4F80839091290380912803981767
:100CC000C8F285E8D8CFE091290381E08E0F8093A8
:100CD00029038091BB00F0E0E85FFC4F80838091A6
:100CE0002B0381115CCF81E08093060384EA80931B
:100CF000BC0010922C0324CF85EC8093BC00109292
:100D00002C038091FF02803230F4E091FF02F0E08A
:100D1000E152FD4F10826091FF0270E0E09100030C
:100D2000F09101038FED92E019951092FF0208CF28
:100D300010922A0334CFEFE5F3E01382128288EE9B
:100D400093E0A0E0B0E084839583A683B78324E09A
:100D500032E03183208325EC30E03587248724EC92
:100D600030E03787268720EC30E0318B208B21EC78
:100D700030E0338B228B22EC30E0358B248B26EC59
:100D800030E0378B268B118E128E138E148EECEF83
:100D9000F3E01382128284839583A683B78386E16E
:100DA00092E0918380830895789484B5826084BDB5
:100DB00084B5816084BD85B5826085BD85B581605F
:100DC00085BD80916E00816080936E0010928100DD
:100DD0008091810082608093810080918100816098
:100DE0008093810080918000816080938000809159
:100DF000B10084608093B1008091B00081608093E5
:100E0000B000809191008260809391008091910068
:100E10008160809391008091900081608093900028
:100E20008091A10082608093A1008091A1008160E7
:100E30008093A1008091A00081608093A0008091A8
:100E40002101826080932101809121018160809342
:100E500021018091200181608093200180917A009E
:100E6000846080937A0080917A00826080937A0017
:100E700080917A00816080937A0080917A00806806
:100E800080937A001092C10010920503109204031F
:100E900010923303109255030E946E0381E192E099
:100EA000909303038093020382E192E09093010305
:100EB00080930003E0916F03F091700382E08083E0
:100EC000E0916B03F0916C031082E0916D03F0915F
:100ED0006E0380E1808310927703E0917303F091B9
:100EE000740386E08083E0917103F0917203808146
:100EF00080618083E0917103F0917203808188604A
:100F00008083E0917103F091720380818068808317
:100F1000E0917103F091720380818F7D808387E27D
:100F200092E00E94870401E025EE822E35EC932E9C
:100F300042E0A42EBB24BA9484E392E00E9487048A
:100F4000C12CD12C7601C394D0E0C0E01C2D0093BD
:100F50003203C092540310923303109255030E943F
:100F6000EC012B013C0180912C03811162C0A09205
:100F70002C0300932B03B0922A03109229031092A2
:100F800028031092070390910703812F880F892B64
:100F90008093070380910603813009F0C8C0109246
:100FA00006030E94EC012B013C0180910703809312
:100FB000BB0080912E0390912F03A0913003B0913C
:100FC0003103892B8A2B8B2BA1F00E94EC012091FD
:100FD0002E0330912F034091300350913103641957
:100FE000750986099709261737074807590708F42E
:100FF00041C08091BC0083FDD8CF9092BC000E947C
:10100000EC012B013C0180912C03823009F492C049
:1010100080912A038F3F09F4AFC080912A03803268
:1010200009F4ACC080912A03803309F4A9C084E09C
:1010300026C080912E0390912F03A0913003B09190
:101040003103892B8A2B8B2B09F48DCF0E94EC0165
:1010500020912E0330912F034091300350913103A2
:10106000641975098609970926173707480759072C
:1010700008F079CF80912D030E948C0385E01092B7
:101080003303109255031092320381117BC080E428
:1010900092E00E943604103120F48FE592E00E9425
:1010A000360440E1C701B6010E94430481E692E0A4
:1010B0000E94870421962FEFC21AD20AE20AF20A8E
:1010C0008FE7C816D104E104F10409F03FCF80E8AE
:1010D00092E0CD2B11F086E992E00E9487040E94F5
:1010E000EC016B017C0188E8482E83E1582E612CCD
:1010F000712C0E94EC016C197D098E099F09683ED4
:10110000734081059105A8F321E0421A5108610856
:10111000710888EEC80E83E0D81EE11CF11C411452
:1011200051046104710429F70E94160305CF8092CF
:10113000BC0065CF80912E0390912F03A0913003C6
:10114000B0913103892B8A2B8B2B09F45CCF0E9441
:10115000EC0120912E0330912F03409130035091E8
:101160003103641975098609970926173707480757
:10117000590708F048CF7ECF80E081CF82E07FCF53
:1011800083E07DCF843009F096CF84E692E00E9420
:101190003604103120F48FE592E00E94360440E1DD
:1011A000C701B6010E94430484E292E00E94360423
:1011B00082CFA1E21A2EAA1BBB1BFD010DC0AA1FE4
:1011C000BB1FEE1FFF1FA217B307E407F50720F0B0
:1011D000A21BB30BE40BF50B661F771F881F991F2B
:1011E0001A9469F760957095809590959B01AC0174
:1011F000BD01CF010895EE0FFF1F881F8BBF079021
:0A120000F691E02D1994F894FFCF49
:10120A0000000000A90213024002F60271024F0216
:10121A006302000000000404D7033304AD03D003C3
:10122A00BD03AE030D0A000A493243205363616EBF
:10123A006E6572005363616E6E696E672E2E2E00A4
:10124A004932432064657669636520666F756E640A
:10125A002061742061646472657373203078003091
:10126A0000202100556E6B6E6F776E206572726F6B
:10127A00722061742061646472657373203078002F
:10128A004E6F204932432064657669636573206630
:0C129A006F756E640A00446F6E650A00F8
:00000001FF
